:100000000C942A010C9452010C9452010C9452014C
:100010000C9452010C9452010C9452010C94520114
:100020000C9452010C9452010C94AE080C945A0793
:100030000C9452010C9452010C9452010C945201F4
:100040000C9452010C9452010C9452010C945201E4
:100050000C9452010C9452010C9452010C94910C8A
:100060000C9452010C941B0A0C94480A0C945201F3
:100070000C9452010C9452010C9452010C945201B4
:100080000C9452010C9452010C9452010C945201A4
:100090000C9452010C9452010C9452010C94520194
:1000A0000C9452010C9452010C9452010000000077
:1000B000000000002A2B28000000000000000000C3
:1000C0000000000000000000000000002C9EB4A012
:1000D000A1A2A434A6A7A5AE362D3738271E1F200F
:1000E000212223242526B333B62EB7B89F848586D4
:1000F0008788898A8B8C8D8E8F9091929394959618
:100100009798999A9B9C9D2F3130A3AD3504050695
:100110000708090A0B0C0D0E0F10111213141516F7
:100120001718191A1B1C1DAFB1B0B500050109063F
:10013000A1018502050719E029E7150025017501D0
:1001400095088102950175088103950675081500CB
:1001500025730507190029738100C012010002EF01
:10016000020140F41B0492000101020301556E6B71
:100170006E6F776E0055534220494F20426F617277
:10018000640004030904080B0002020201000904D0
:1001900000000102020000052400100105240101F5
:1001A000010424020605240600010705810310004E
:1001B0004009040100020A00000007050202400095
:1001C00000070583024000000000000200090F0044
:1001D00000030401000C000000000000000000000B
:1001E00000000000000004080201104080401020C0
:1001F00040804080080204018040201002011080ED
:1002000010204040200404040404030405020202F8
:10021000020403020202020606060606060404029F
:1002200002020404000000002300260029002C0024
:100230002F0000000000250028002B002E003100B8
:1002400000000000240027002A002D0030008D034C
:10025000780A7C0C11241FBECFEFDAE0DEBFCDBFE1
:1002600011E0A0E0B1E0E0E2FDE102C005900D92F6
:10027000AE3CB107D9F723E0AEECB1E001C01D926E
:10028000A43BB207E1F711E0CAE2D1E004C0219734
:10029000FE010E94790EC732D107C9F70E94D80427
:1002A0000C947F0E0C940000CF93DF9384E792E0D0
:1002B0000E94B802C5E0D1E061E089910E94E60D9C
:1002C000FE01319761E080810E94220E81E0C03101
:1002D000D80791F7C0E0D1E062E089910E94E60D75
:1002E000A1E0C530DA07C1F7ECE3F2E087E3DF0114
:1002F0001D928A95E9F7EEECF1E08EE6DF011D92A2
:100300008A95E9F761E081E0DF91CF910C94E60DE9
:100310002F923F924F925F926F927F928F929F9215
:10032000AF92BF92CF92DF92EF92FF920F931F9303
:10033000CF93DF9365E0A62E61E0B62E10E000E0DB
:1003400078EC472E512C60E0F50181915F010E940D
:10035000220E40E0642E41E0742EE80155E0252E87
:10036000CE01880F991F9C0122533E4F7901F9015C
:10037000C080D180F30181913F010E94500E9E0107
:10038000245C3D4F4901F9013080F2E03F1609F449
:1003900068C0F31590F031105CC0811112C0F701F4
:1003A00051824082F2E02F123AC00A30C1F521E0BA
:1003B000209373023324339404C023E0321609F4EB
:1003C0007BC0F4013082C114D10431F0F1E0CF1AC6
:1003D000D108F701D182C0822A942B962110C0CF78
:1003E00061E0F501319780810E94220E0F5F1F4F5F
:1003F0000B30110509F0A7CFDF91CF911F910F911D
:10040000FF90EF90DF90CF90BF90AF909F908F9034
:100410007F906F905F904F903F902F9008958091C4
:100420007302811108C0FE01E65AFE4F608184E725
:1004300092E00E94C8023090730231E03312BACFCA
:10044000FE01ED5DFE4F608184E792E00E94C802EC
:10045000B8CF92E0392E81E0C816D10409F4B1CFAB
:10046000A9CF882349F1F7015182408225E0322E3D
:100470003218F3E03F1205C00A3019F410927302EB
:10048000A0CF80917302811108C0FE01E65AFE4F91
:10049000608184E792E00E94320380917302813090
:1004A00041F4FE01ED5DFE4F608184E792E00E9421
:1004B000320383E0382E85CF21E0C216D10409F043
:1004C00080CF312C7ECF90E080E008950895CF92C8
:1004D000DF92EF92FF920F931F93CF93DF938C01E4
:1004E000EB016B01C40ED51EF12CE12CCC15DD0502
:1004F00089F069916D30D1F3D801ED91FC910190B3
:10050000F081E02DC8010995892B21F0BFEFEB1A8E
:10051000FB0AECCFC701DF91CF911F910F91FF90A4
:10052000EF90DF90CF900895FC011382128285E94D
:1005300091E09183808380918002811113C0109299
:100540008902109288028CE291E090938B02809352
:100550008A028FE290E090938D0280938C0281E07A
:10056000809380020E94C90468E872E00C945404ED
:100570000895CF93DF93D62FC72F0E94C90428E098
:1005800030E04D2F5C2F62E0DF91CF910C9474042A
:10059000DC01683898F1685816968C911697861782
:1005A00021F117968C9117978617F9F018968C9170
:1005B00018978617D1F019968C9119978617A9F07C
:1005C0001A968C911A97861781F01B968C911B971F
:1005D000861759F0FD01369690E080E021912111B7
:1005E0003BC08A0F9B1FFC016683BD016C5F7F4F80
:1005F000CD010E94B90281E090E00895E62FF0E07D
:1006000067FF11C0E058F10921E030E001C0220F7E
:10061000EA95EAF714968C911497822B14968C9392
:10062000149760E0B9CFE455FF4F6491611109C0A0
:1006300081E090E013969C938E93129790E080E077
:10064000089567FFA9CF14968C9114978260149631
:100650008C9314976F77A0CF01968630910509F09F
:10066000BDCFE6CFDC016838B8F06858FD01CD0198
:100670000696662321F02681261301C01682319644
:100680008E179F07B1F7BD016C5F7F4FCD010E94B0
:10069000B90281E090E00895E62FF0E067FF12C014
:1006A000E058F10981E090E001C0880FEA95EAF78F
:1006B000809514969C911497892314968C93149783
:1006C00060E0D4CFE455FF4F6491662359F067FF93
:1006D000CDCF14968C9114978D7F14968C9314978C
:1006E0006F77C4CF90E080E00895EF92FF921F9360
:1006F000CF93DF93D82FC92F162F0E94C8027C01F9
:10070000612F8D2F9C2F0E943203C7019927DF9103
:10071000CF911F91FF90EF90089584E792E00C94A1
:100720009402DC01FB0188E4808389E4818384E412
:1007300082831D968C911D978F708F5B83831D968E
:100740008D919C9124E0969587952A95E1F78F707D
:100750008F5B848385E00895CF93DF93CDB7DEB7B9
:1007600069970FB6F894DEBF0FBECDBFFC01DB0169
:100770008C918F5F8C939E012C5F3F4F8BE0D90152
:100780001D928A95E9F729E0298384E08A8381E034
:100790008D8393E09E832A8721E22B878C878D8728
:1007A0008F8722E2288B27E02B8B25E02C8B9E8BDA
:1007B00020E430E0388F2F8B898F82818B83858571
:1007C00096859A8B898B838180688D8B49E150E077
:1007D000BE016F5F7F4F80E00E94010769960FB6F0
:1007E000F894DEBF0FBECDBFDF91CF910895DC013D
:1007F000FB0112962C911297848195812817190676
:1008000049F481819081913A39F4982F9D7F81E05C
:10081000913009F080E008959132E1F78B3029F4AE
:1008200082811F968C9381E008958A3099F78281A6
:1008300050968C93F8CFEF92FF920F931F93CF9324
:10084000DF93EC01FB018081813859F5838182328D
:1008500041F52A81848195812817190611F50B85A8
:100860001C85F12CE12C0115110589F0F80144815A
:1008700055816281738180E80E9401078F3F98074C
:1008800049F0E80EF91EF80100811181ECCF81E0FA
:100890008F87C701DF91CF911F910F91FF90EF904C
:1008A000089590E080E0F6CFCF93DF93FC01DB0169
:1008B000C385D485209771F4748763878585968571
:1008C00014962D913C91820F931F96878587DF9117
:1008D000CF910895CE010990D881C02D2097D1F7EE
:1008E000EC01B983A883EACFAF92BF92CF92DF9297
:1008F000EF92FF920F931F93CF93DF930F92CDB799
:10090000DEB77C0169836A01590141E050E0BE0114
:100910006F5F7F4FFC0183810E9446068C0197FD2B
:100920000BC0F7018381A501B60180640E944606D1
:10093000080F191F97FD8C01C8010F90DF91CF910F
:100940001F910F91FF90EF90DF90CF90BF90AF90ED
:100950000895CF93DF93EC0181E08C838D839E011A
:10096000265F3F4F3F832E831986188621EA31E0A8
:10097000398328831C861B861E861D868F87888B5D
:1009800081EC8A870E94770BBE01DF91CF910C9496
:10099000310B80918E02811107C086E992E00E949E
:1009A000A90481E080938E0286E992E0089508957B
:1009B0000E94530D0E94D70487EA92E00E942C09FE
:1009C0000E945401C5E8D9E00E9488012097E1F314
:1009D0000E948509F9CFCF92DF92EF92FF920F9399
:1009E0001F93CF93DF937C016A0110E000E00C15A8
:1009F0001D0581F0EB01D701ED91FC910190F08193
:100A0000E02D6991C7010995892B21F00F5F1F4FD8
:100A1000BE01EDCFC801DF91CF911F910F91FF90E3
:100A2000EF90DF90CF900895615030F0FC018091FD
:100A3000F1008193CF01F8CF289884E68093AF022C
:100A400008954091AA025091AB022091A8023091E2
:100A5000A90242175307B4F49091E8009570E1F3AE
:100A60009091E80092FD19C08093F1008091AA0254
:100A70009091AB0201968F739927892B19F48EEF11
:100A80008093E8008091AA029091AB020196909326
:100A9000AB028093AA0281E0089580E00895EF926E
:100AA000FF920F931F93CF93DF93F82E192FE62E0B
:100AB000042F81E0860F880F0E94210583E00E94A9
:100AC0002105CF2DD12FEC0EFD2EF11CCE15DF050B
:100AD000B9F007FF13C0FE0184910E942105182F71
:100AE00080E00E942105812321968111EFCFDF91C3
:100AF000CF911F910F91FF90EF9008958881EDCFD6
:100B000081E0F5CF8091D70081608093D70080EAA3
:100B10008093D80089B5806189BD89B5826089BD1F
:100B200009B400FEFDCF61E070E080E090E00E943B
:100B30000C0D8091D8008F7C80618093D8008091CB
:100B4000E000807F8093E0000895CF93DF930F92C1
:100B5000CDB7DEB71982CE0101960E94ED0B0E943F
:100B6000770BBE016F5F7F4F0E94A50A89810F90AE
:100B7000DF91CF9108952FB7FC012083F89467701F
:100B80006093E9000895CF93DF930F92CDB7DEB75E
:100B9000682FCE0101960E94BB058091F2009981D9
:100BA0009FBF0F90DF91CF910895EF92FF920F9327
:100BB0001F93CF93DF930F92CDB7DEB77B018A01EE
:100BC0009091AE02992371F157FD2CC0682FCE0190
:100BD00001960E94BB058091F20090E0081719076A
:100BE0000CF4C801282F44E6215048F0F70128985A
:100BF0004093AF023091F10031937F01F5CF009720
:100C000039F02091F200211103C02BE62093E80077
:100C100029812FBF0F90DF91CF911F910F91FF90EE
:100C2000EF9008958FEF9FEFF5CFCF93DF930F9263
:100C3000CDB7DEB741E050E0BE016F5F7F4F0E944D
:100C4000D505019731F4898190E00F90DF91CF9124
:100C500008958FEF9FEFF9CFCF93DF930F92CDB72A
:100C6000DEB7682FCE0101960E94BB059091E80087
:100C7000892F807295FF04C09091F20080E4891B57
:100C800099819FBF0F90DF91CF9108955F926F92EE
:100C90007F928F929F92AF92BF92CF92DF92EF920C
:100CA000FF920F931F93CF93DF930F92CDB7DEB7D1
:100CB000082F6B01B42EA52E8091AE02811113C0B6
:100CC0008FEF9FEF0F90DF91CF911F910F91FF90CA
:100CD000EF90DF90CF90BF90AF909F908F907F90DC
:100CE0006F905F9008958091AC0280FF05C0809165
:100CF000E00082608093E000EB2CFA2C912C8AEFCC
:100D0000882E802F8072682E802F8074582E9AE350
:100D1000792EE114F10419F4992009F460C0802FB0
:100D20000E942C06182F81110AC08A94882041F253
:100D300061E070E080E090E00E940C0DEACF8E153B
:100D40001F0411F00CF01E2D602FCE0101960E94A1
:100D5000BB058091E80085FD03C089818FBFD9CF95
:100D6000212F30E0E21AF30A662029F0115060F0DA
:100D70001092F100FBCF9C2D8D2D07FF10C0F601C6
:100D8000115040F4C20ED31E992099F07092E800E1
:100D9000912CE3CF84918093F1003196F1CF1150E3
:100DA00088F3E92FF82F81918093F1009E2F8F2FE8
:100DB000F6CF8091E80085FD08C07092E800992484
:100DC0009394E114F10449F2E3CFE114F10409F042
:100DD000C4CF552009F4C1CF7092E800BECF5D9812
:100DE00084E68093B0028B2D9A2D6CCF1092E9008F
:100DF0001092AB021092AA029093A9028093A802CB
:100E00000895CF92DF92FF920F931F93CF93DF93BA
:100E1000F82E8A01EB016B01C40ED51ECC15DD0541
:100E200059F0F7FE12C0FE0184910E94210521961F
:100E30008111F4CF0FEF1FEFC801DF91CF911F9108
:100E40000F91FF90DF90CF9008958881EECFBF92F1
:100E5000CF92DF92EF92FF920F931F93CF93DF9386
:100E60006C018B01EB019BEFB92E2097C1F07E0145
:100E7000C134D1051CF080E4E82EF12C8091E8000B
:100E800082FFFCCFC8018C1B9D0B6E2D8C0D9D1D10
:100E90000E941405B092E800CE19DF09E6CFC80120
:100EA000DF91CF911F910F91FF90EF90DF90CF9046
:100EB000BF9008951F920F920FB60F921124EF92D8
:100EC000FF920F931F932F933F934F935F936F93D3
:100ED0007F938F939F93AF93BF93EF93FF93CF93A2
:100EE000DF93CDB7DEB76C97DEBFCDBF1092E900C0
:100EF0008091E80083FF21C068E0CE0145960E9402
:100F0000140582EF8093E8008D8987FF33C09091AC
:100F1000E80090FFFCCF982F907609F001C19E89E0
:100F200091112FC0803851F58091AD028093F1006E
:100F30001092F1008EEF8093E8006C960FB6F89453
:100F4000DEBF0FBECDBFDF91CF91FF91EF91BF917B
:100F5000AF919F918F917F916F915F914F913F9151
:100F60002F911F910F91FF90EF900F900FBE0F9058
:100F70001F9018959EEF9093E800CDCF1092F1004E
:100F8000D7CF2F89388D913059F48111D3CF2130AB
:100F9000310581F68091AD028D7F8093AD02CACF7D
:100FA000933049F48111C6CF2130310519F6809173
:100FB000AD028260F2CF953049F48091E80080FF65
:100FC000FCCF8F8980688093E300B4CF963009F01E
:100FD00078C0188DEB8CFC8C123039F590E080E0F5
:100FE0000E94F6060E94A5051F8299E099831A8344
:100FF00091E09E8390EA98879AEF99872091AA02C0
:101000003091AB02275F3F4F3C832B838D83C70119
:101010000E94F60649E050E0BE016F5F7F4F80E01E
:101020000E9401070E94A50585CFC7010E94F60610
:101030000E94770BBE016B5E7F4F0E94CF0A009724
:1010400031F00CF077CF81E28093EB0076CF113056
:1010500061F11330C1F78F89882381F1823049F41F
:1010600040E86CE085E791E00E944F05882359F342
:1010700061CF813029F440E867E08DE691E0F4CF5C
:10108000833009F70E94770B8E010F5F1F4FB80165
:101090000E94F00AF80101900020E9F73197BF01A2
:1010A000601B710B40E0C801DFCF6BE571E0FB0115
:1010B000449150E080E80E9401073CCF62E871E073
:1010C000F6CF973009F4BFCF983021F481E08093B8
:1010D000F10030CF993009F02DCF837009F0B3CFF4
:1010E000E1E1F1E081E031E096E32191211109C0D5
:1010F0008EE78093EA001092EA008F898093AE0217
:1011000019CF8093E9003093EB00DF0111972C9108
:101110002093EC009093ED008F5F873031F7E8CF9C
:101120008B8D9C8D0E94F606898D811105C0CE01A4
:1011300045960E94F80B9ACF0E94770BBE016B5E1A
:101140007F4F0E94110B92CF8093E9008091F200B3
:10115000882319F08AE38093E80008951F920F9284
:101160000FB60F9211242F933F934F935F936F937A
:101170007F938F939F93AF93BF93CF93EF93FF93FF
:10118000C091E1008091E100837F8093E100C3FF83
:101190000FC01092E90081E08093EB001092EC0008
:1011A00082E38093ED001092AE0288E08093F0001D
:1011B000C2FF1BC083E00E94A4088091B002882374
:1011C00041F08091B00281508093B002811101C042
:1011D0005D9A8091AF02882341F08091AF028150E7
:1011E0008093AF02811101C0289AC4FF23C080916F
:1011F000E2008E7E81608093E2008091E1008F7E2C
:101200008093E1008091AC028E7E80618093AC027D
:10121000FF91EF91CF91BF91AF919F918F917F916E
:101220006F915F914F913F912F910F900FBE0F9053
:101230001F901895C0FFECCF8091E2008E7E8061F8
:101240008093E2008091E1008E7E8093E1008091A6
:10125000AC028E7E8160DACF1092AE021092AD02A7
:101260001092AC020E9482058091E1008E7E8093F4
:10127000E1008DE08093E200559A209AEEEFFFE7BF
:10128000859194918B3F9C4D19F481E08093AA0342
:101290000895FC01818D228D90E0805C9F4F821B20
:1012A00091098F7399270895FC01918D828D98176C
:1012B00031F0828DE80FF11D858D90E008958FEF5C
:1012C0009FEF0895FC01918D828D981761F0A28D9A
:1012D000AE0FBF2FB11D5D968C91928D9F5F9F7356
:1012E000928F90E008958FEF9FEF0895FC01538D4A
:1012F000448D252F30E0842F90E0821B930B5417F0
:1013000010F0CF960895019708958EE69AE0892B04
:1013100049F080E090E0892B29F00E946E0A81114B
:101320000C9400000895FC01A48DA80FB92FB11DE5
:10133000A35ABF4F2C91848D90E001968F7399270B
:10134000848FA689B7892C93A089B1898C918064F8
:101350008C93938D848D981306C00288F389E02DB9
:1013600080818F7D80830895CF93DF93EC01888DFA
:101370008823B9F0AA89BB89E889F9898C9185FD10
:1013800003C0808186FD0DC00FB607FCF7CF8C919E
:1013900085FFF2CF808185FFEDCFCE010E949309BA
:1013A000E9CFDF91CF910895EF92FF920F931F93B2
:1013B000CF93DF93EC01F62E81E0888F9B8D8C8D8F
:1013C000981316C0E889F989808185FF11C0EE89DC
:1013D000FF896083E889F98980818064808381E066
:1013E00090E0DF91CF911F910F91FF90EF900895C2
:1013F0000B8D10E00F5F1F4F0F731127E02E8C8DA8
:101400008E110CC00FB607FCFACFE889F9898081EC
:1014100085FFF5CFCE010E949309F1CFEB8DEC0F44
:10142000FD2FF11DE35AFF4FF0820B8FEA89FB89F4
:1014300080818062D3CF2F932FB72F938F939F9369
:10144000EF93FF93E091C102F091C2028081E0919D
:10145000C702F091C80282FD19C090818091CA0232
:101460008F5F8F732091CB02821741F0E091CA0207
:10147000F0E0EF54FD4F958F8093CA02FF91EF91FA
:101480009F918F912F912FBF2F9118958081F6CF2B
:101490001F920F920FB60F9211242F933F934F93E9
:1014A0005F936F937F938F939F93AF93BF93EF93CC
:1014B000FF9381EB92E00E949309FF91EF91BF911E
:1014C000AF919F918F917F916F915F914F913F91DC
:1014D0002F910F900FBE0F901F90189581EB92E007
:1014E0000E9449099C0181E0232B09F480E00895C2
:1014F000E1EBF2E01382128288EE93E0A0E0B0E02C
:1015000084839583A683B7838DEA91E0918380835A
:101510008DEC90E0958784878CEC90E097878687A8
:1015200088EC90E0918B808B89EC90E0938B828BA0
:101530008AEC90E0958B848B8EEC90E0978B868B79
:10154000118E128E138E148E0895EF92FF920F93C8
:101550001F93CF93DF93F62EE72EFC01C281D38138
:1015600010E000E0209799F0E881F9810280F38192
:10157000E02D6F2D7E2DCE01099597FD06C0080F39
:10158000191F0884D985C02DEDCF0FEF1FEFC801BB
:10159000DF91CF911F910F91FF90EF9008950F93DE
:1015A0001F93CF93DF93162F072FFC01C281D381A6
:1015B000209779F0E881F9810480F581E02D612F91
:1015C000702FCE010995009731F40884D985C02D7C
:1015D000EFCF90E080E0DF91CF911F910F910895C0
:1015E0000F931F93CF93DF93EB01DC0112960D91C4
:1015F0001C910115110579F0D801ED91FC9106803F
:10160000F781E02DBE01C8010995C80FD11DF80171
:1016100000851185EECF1882DF91CF911F910F9138
:1016200008950F931F93CF93DF93162F072FFC017D
:10163000C281D381209779F0E881F9810190F0810E
:10164000E02D612F702FCE010995811105C008840E
:10165000D985C02DEFCF80E0DF91CF911F910F9101
:101660000895CF93DF93FC01DB01218114968C91C7
:101670001497820F9927991F08979CF5C281D381EF
:10168000209729F573836283908112969C93129719
:1016900013962C93139715968C911597890F808329
:1016A00080E014969C9114978917F8F41696CD91C2
:1016B000DC911797C80FD11D9881C181D0E0C05F20
:1016C000DE4F988391819F5F91838F5FEACFCE0138
:1016D0000884D985C02D2097D1F7EC01B987A88758
:1016E000D3CF80E0DF91CF91089581E0FBCF80914F
:1016F0004E0381110DC082E08093560384E08093F5
:101700005703109259031092580381E080934E03BF
:1017100086E593E00895CF93DF930F92CDB7DEB7C0
:10172000DC016983ED91FC910280F381E02D41E0C1
:1017300050E0BE016F5F7F4F09950F90DF91CF9111
:101740000895CF93DF93EC018C859D8597FF05C0AD
:1017500082E00E9415069D878C878C859D85DF9190
:10176000CF91089583E00E942C0690E0089583E0D5
:101770000C94A408FC018485958597FD06C082E041
:101780000E94C30590E00196089582E00E94C3057F
:1017900090E00895FC018485958597FD05C02FEFA5
:1017A0003FEF35872487089582E00C941506CF9388
:1017B000DF93EC0180912201882331F083E00E94C5
:1017C00046061816190634F081E090E09B838A8360
:1017D00080E090E0DF91CF910895FC0180818E5FE1
:1017E000808342E450E066E871E080E80C940107F1
:1017F000FC0181819081913A61F4813209F073C0DA
:1018000047E050E06BE171E080E00E94010781E079
:101810000895913209F067C0833269F4828193811F
:10182000B0E0A0E08093170190931801A0931901F4
:10183000B0931A01ECCF803209F057C067E070E036
:101840008BE191E00E9427078091AA03EEEFFAE076
:10185000811102C0E0E0F8E080911B0190911C0131
:10186000A0911D01B0911E01803B9440A105B105DE
:10187000B9F48091220180FD13C0EE3F8AE0F807A1
:1018800021F587E797E79183808388E19BE00FB696
:10189000F894A895809360000FBE90936000B7CF36
:1018A0000FB6F894A89580916000886180936000DD
:1018B000109260000FBEA895EE3F2AE0F20761F497
:1018C0001092FF0A1092FE0AA2CF8081918190931C
:1018D000FF0A8093FE0AD5CF8091FE0A9091FF0AFD
:1018E0009183808394CF80E00895823209F08FCF76
:1018F000828180932201A8CFEAE5F3E0138212826D
:1019000088EE93E0A0E0B0E084839583A683B7835C
:101910008FEB91E0918380838FEF9FEF9587848792
:1019200008951F921FB61F9211242F933F938F93F8
:101930009F93AF93BF938091AC039091AD03A0911F
:10194000AE03B091AF033091AB0323E0230F2D37EB
:1019500050F50196A11DB11D2093AB038093AC03FC
:101960009093AD03A093AE03B093AF038091B00307
:101970009091B103A091B203B091B3030196A11D60
:10198000B11D8093B0039093B103A093B203B093C1
:10199000B303BF91AF919F918F913F912F911F9072
:1019A0001FBE1F90189526E8230F0296A11DB11D9A
:1019B000D3CFCF93DF9300D000D0CDB7DEB73FB702
:1019C000F8948091B0039091B103A091B203B091CB
:1019D000B30326B5A89B05C02F3F19F00196A11DA2
:1019E000B11D3FBFBA2FA92F982F8827820F911DB5
:1019F000A11DB11D9C01AD0162E0220F331F441FE8
:101A0000551F6A95D1F7CA01B9010F900F900F9039
:101A10000F90DF91CF9108958F929F92AF92BF92D6
:101A2000CF92DF92EF92FF92CF93DF9300D000D05E
:101A3000CDB7DEB76B017C010E94D90C4B015C0174
:101A4000C114D104E104F104F9F00E94A90D0E942F
:101A5000D90CDC01CB0188199909AA09BB09883E78
:101A60009340A105B10560F321E0C21AD108E10855
:101A7000F10888EE880E83E0981EA11CB11CC114E9
:101A8000D104E104F10419F70F900F900F900F901B
:101A9000DF91CF91FF90EF90DF90CF90BF90AF900C
:101AA0009F908F900895789484B5826084BD84B5AA
:101AB000816084BD85B5826085BD85B5816085BD49
:101AC000EEE6F0E0808181608083E1E8F0E0108262
:101AD000808182608083808181608083E0E8F0E0A3
:101AE000808181608083E1E9F0E080818260808391
:101AF000808181608083E0E9F0E080818160808383
:101B0000E1ECF0E08081846080838081826080836A
:101B1000808181608083E3ECF0E08081816080835C
:101B2000E0ECF0E0808182608083E2ECF0E0808194
:101B300081608083EAE7F0E0808184608083808137
:101B400082608083808181608083808180688083DF
:101B50000895089581508F30C0F5E82FF0E0EF57D9
:101B6000F14F0C94790E809180008F7780938000E4
:101B70000895809180008F7DF9CF80918000877FCC
:101B8000F5CF84B58F7784BD089584B58F7DFBCF65
:101B9000809190008F7780939000089580919000BD
:101BA0008F7DF9CF80919000877FF5CF8091C00025
:101BB0008F778093C00008958091C0008F7DF9CF0A
:101BC0008091C200877F8093C2000895CF93DF93F6
:101BD00090E0FC01EA51FE4F24918B5F9D4FFC0188
:101BE00084918823C9F090E0880F991FFC01E05C84
:101BF000FD4FA591B491FC01EE5CFD4FC591D491D0
:101C000061110DC09FB7F8948C91209582238C931D
:101C10008881282328839FBFDF91CF910895623068
:101C200051F49FB7F8943C91822F809583238C9335
:101C3000E8812E2BEFCF8FB7F894EC912E2B2C93BD
:101C40008FBFEACF1F93CF93DF93162F282F30E05B
:101C5000F901E853FE4F8491F901EA51FE4FD49106
:101C6000F901EB5FFD4FC491CC23A1F081110E94DB
:101C7000AA0DEC2FF0E0EE0FFF1FEE5CFD4FA591DB
:101C8000B4918FB7F894EC91111108C0D095DE2370
:101C9000DC938FBFDF91CF911F910895DE2BF8CF9A
:101CA000CF93DF93282F30E0F901E853FE4F849162
:101CB000F901EA51FE4FD491F901EB5FFD4FC49158
:101CC000CC23A1F081110E94AA0DEC2FF0E0EE0FC1
:101CD000FF1FEC5DFD4FA591B491EC91ED2381E0E8
:101CE00090E009F480E0DF91CF91089580E090E0EA
:101CF000FACFEE0FFF1F0590F491E02D0994F894B0
:101D0000FFCFC10DC50DB30DB90DBD0DE50DE50D31
:101D1000E50DC80DCE0DD20DD60DDC0DE50DE00D97
:101D2000151413120F02030405060708090A100E02
:101D300000C18081000000FFFFFFFF00E100000004
:101D4000000000B1313233343536373839307177ED
:101D50006572747975696F70D46173646667686A57
:101D60006B6C2FB0807A786376626E6D2C2E3F811B
:101D70002B235B5D3FD2D3D6D583B131323334359B
:101D8000363738393071776572747975696F70B22A
:101D90006173646667686A6B6C2FB0807A7863766B
:101DA000626E6D2C2E3F815C273AB320D8DAD9D7EA
:101DB00082000000007503670263026602000000F3
:101DC00000F703AC031B04910300000000D409EBEF
:101DD000047609B409490962095409000000008B1E
:0E1DE0000BD70BB20BB70BBA0BCA0BA10B0043
:00000001FF
